:060000000A128A110C280F
:10000800FE00030EF0000A08F1000A128A15202FDC
:100018000A128A110F280A128A11FA270A128A115B
:10002800BF000A128A11F9270A128A11FB00B601C9
:10003800B701B801B901BA01BB01BC01BD01BE01DC
:10004800F901FA0183010A128A110A2B8312031398
:10005800AE002A0A031D312832283728FF30AE00A7
:10006800B601B701B8015230F6008530F70080308C
:10007800F8000A128A1581260A128A11EB30F60056
:100088008530F700C030F8000A128A1581260A1256
:100098008A113330F6008530F700D030F8000A12A4
:1000A8008A1581260A128A11CA3083120313A800FE
:1000B80020300A128A15D9250A128A11C9308312EA
:1000C8000313A80020300A128A15D9250A128A11AA
:1000D800C83083120313A80020300A128A15D925C4
:1000E8000A128A11323083120313AD009128C830E6
:1000F800A8000A30F2000030F3003708F50036088F
:10010800F4000A128A155D270A128A117208303E15
:100118000A128A15D9250A128A110130831203138B
:10012800AD022D0A031D99289A287B28C930A800FA
:100138000A30A0000030A1000A30F2000030F300BD
:100148003708F5003608F4000A128A155D270A12E6
:100158008A11730883120313A3007208A2000A12FB
:100168008A15E6260A128A11831203132008303EE4
:100178000A128A15D9250A128A11CA308312031362
:10018800A8000A30A0000030A1003708A3003608F4
:10019800A2000A128A15E6260A128A11831203138C
:1001A8002008303E0A128A15D9250A128A112A30E7
:1001B800831203132E060319E228E3280E2923309D
:1001C8002E060319E828E9280E292E0A0319ED2816
:1001D800EE280E29043038020318F328F428CA2917
:1001E8003708F3003608F2000A30F4000030F50052
:1001F8000A128A152F260A128A11831203132E084F
:100208007207B6000030031801307307B7000130D9
:10021800B807CA292A302E06031D132914291829BC
:10022800B601B701B801CA2923302E06031D1D29BE
:100238001E29CA2900303702B53003193602031CBB
:10024800262927292B29B430B6000030B7000A1216
:100258008A15A1250A128A116E30F6008530F7003A
:100268008230F8000A128A1581260A128A11933000
:10027800F6008530F7009030F8000A128A158126BA
:100288000A128A11F230F6008530F7009D30F80026
:100298000A128A1581260A128A113C308312031326
:1002A800BB001215B9299A30A8006430F20000305A
:1002B800F3003B08AB00AC012B08F4002C08F50058
:1002C8000A128A112A240A128A117208303E0A1266
:1002D8008A15D9250A128A119B3083120313A800A4
:1002E8000A30A4000030A5000A30F2000030F30004
:1002F8003B08AB00AC012B08F4002C08F5000A12EF
:100308008A112A240A128A11730883120313A70078
:100318007208A6000A128A11A0270A128A118312EB
:1003280003132408303E0A128A15D9250A128A11A5
:100338009C3083120313A8000A30A4000030A500E3
:100348003B08AB00AC012B08A6002C08A7000A123A
:100358008A11A0270A128A11831203132408303E37
:100368000A128A15D9250A128A11831203133B0827
:10037800031DBF29C029572912110A128A15A12560
:100388000A128A11113083120313BF000800831266
:100398000313AE002A0A031DD229D329D929BA0189
:1003A800B901FF30AE00BE01BD019E30F6008530B8
:1003B800F7008030F8000A128A1581260A128A117D
:1003C800E430F6008530F700C030F8000A128A15CC
:1003D80081260A128A110030F6008530F700D030E5
:1003E800F8000A128A1581260A128A112A30831205
:1003F80003132E060319012A022A382A23302E064F
:100408000319072A082A382A2E0A03190C2A0D2A42
:10041800382A0130B907033039020318142A152A7B
:10042800232A0A30F2003E080A128A15B2250A1257
:100438008A11831203132E07BE00BA015A2A053007
:1004480039020318282A292A5A2A0A30F2003D08B4
:100458000A128A15B2250A128A11831203132E076B
:10046800BD000130BA005A2A2A302E06031D3D2A43
:100478003E2A4B2A3A080319422A432A482ABD0130
:100488000230B900BA015A2ABE01B9015A2A2330EA
:100498002E06031D502A512A5A2A07151215DD3037
:1004A800BF000A128A15A1250A128A1183120313A2
:1004B8003A08031D602A612A742AC930A80020302E
:1004C8000A128A15D9250A128A11CA30831203130F
:1004D800A80020300A128A15D9250A128A11862AFC
:1004E800C630A80020300A128A15D9250A128A11A6
:1004F800C73083120313A80020300A128A15D925A1
:100508000A128A11323083120313AD000130AD0292
:100518002D0A031D902A912A8A2AC930A8000A3078
:10052800F2000030F3003E08AB00AC012B08F400E9
:100538002C08F5000A128A112A240A128A11720854
:10054800303E0A128A15D9250A128A11CA30831236
:100558000313A8000A30A4000030A5003E08AB0031
:10056800AC012B08A6002C08A7000A128A11A027A4
:100578000A128A11831203132408303E0A128A15BC
:10058800D9250A128A11C83083120313A8003A30F9
:100598000A128A15D9250A128A11C6308312031342
:1005A800A8000A30F2000030F3003D08AB00AC01AF
:1005B8002B08F4002C08F5000A128A112A240A12C2
:1005C8008A117208303E0A128A15D9250A128A1130
:1005D800C73083120313A8000A30A4000030A50016
:1005E8003D08AB00AC012B08A6002C08A7000A1296
:1005F8008A11A0270A128A11831203132408303E95
:100608000A128A15D9250A128A1108000A128A15AF
:10061800EE250A128A1101300A128A150C260A12CE
:100628008A1183120313B50002303F06031D1D2BE8
:100638001E2B822B3503031D222B232B502B0A1232
:100648008A15A1250A128A11113083120313BF00DB
:100658007B30F6008530F700C030F8000A128A15A2
:1006680081260A128A111A3083120313B3005E30EE
:10067800B2006D30B100B10B3F2BB20B3F2BB30B67
:100688003F2B462B0A128A15A1250A128A11FF3020
:1006980083120313BC00822B02303506031D552B31
:1006A800562B602B0A128A15A1250A128A111230BC
:1006B80083120313BF004B2B03303506031D652B34
:1006C800662B702B0A128A15A1250A128A1113307B
:1006D80083120313BF004B2B04303506031D752B03
:1006E800762B822B0A128A15A1250A128A11143038
:1006F80083120313BF000130B4004B2BDD303F06DB
:10070800031D872B882BB22B04303506031D8D2B38
:100718008E2BA02B34080319922B932B062C1E30FA
:10072800BE073C303E02031C9A2B9B2BC32B013087
:10073800BD073C30BE02062C05303506031DA52B2F
:10074800A62BA92BCC30BF00062C06303506031D7E
:10075800AE2BAF2BC32BBB30BF00062CCC303F06D3
:10076800031DB72BB82B062C04303506031DBD2BF3
:10077800BE2BC32B07151215DD30BF00062C062C27
:100788000A128A159F270A128A110A128A15A125A8
:100798000A128A11023083120313BF00232C0A1293
:1007A8008A1554260A128A11232C3C08AA003508F7
:1007B8000A128A11CB210A128A11232C0A128A11D1
:1007C800F6250A128A11232C07111211232C07115E
:1007D8001211C92B3C08AA0035080A128A11CB212C
:1007E8000A128A11232C0A128A1587250A128A11DD
:1007F800232C3C08AA0035080A128A112A200A125A
:100808008A11232C3F08013A0319C42B033A031910
:10081800D32B133A0319D92B033A0319EE2B013AB8
:100828000319FD2B073A0319F72BAF3A0319EB2BE2
:10083800773A0319E82B113A0319E22B232C831278
:100848000313BC010F2B0A128A110C2883120313FD
:10085800A101F31F302C312C382CF209F309F20ACC
:100868000319F30A0130A100F51F3B2C3C2C432C43
:10087800F409F509F40A0319F50A0130A106A201E1
:10088800A3017208730403194A2C4B2C802C0130E5
:10089800A000572C01300310F20DF30DFF3E031D8D
:1008A8004F2C0130A007F31F5A2C5B2C4E2C013023
:1008B8000310A20DA30DFF3E031D5C2C73087502E7
:1008C800031D682C72087402031C6B2C6C2C732C8F
:1008D8007208F4027308031CF503F50222140130B0
:1008E8000310F30CF20CFF3E031D742C0130A00220
:1008F800031D7F2C802C5B2C21080319842C852C4C
:100908008A2CA209A309A20A0319A30A2308F3003F
:100918002208F2000800C330F700CD30F600F60BCD
:10092800932CF70B932CF20133300A128A15B02658
:100938000A128A111B30F7009E30F600F60BA22C23
:10094800F70BA22C0000F20133300A128A15B026E8
:100958000A128A11A630F600F60BB02C0000F2013C
:1009680033300A128A15B0260A128A11BB2CBC2C05
:100978000000F20102300A128A15B0260A128A1102
:10098800A630F600F60BC62C0000F20128300A1239
:100998008A15B0260A128A11A630F600F60BD22C58
:1009A8000000F20101300A128A15B0260A128A11D3
:1009B8000430F7003D30F600F60BE02CF70BE02C86
:1009C800E52CF2010C300A128A15B0260A128A1197
:1009D800A630F600F60BEE2C000008008316031371
:1009E8008801091189100A128A118F240A128A11A2
:0209F8000800F5
:100A00002A343A3443344C3445344134523420345B
:100A10002C34203423343A3445344E345434453461
:100A20005234003434342E34533454344134523438
:100A3000543420342F342034523445345334553414
:100A40004D344534003445344E344A344F345934EF
:100A5000203459344F345534523420344D344534D5
:100A600041344C3400342A343A3443344C34453421
:100A700041345234203423343A3445344E345434DF
:100A80004534523400344D346934633472346F3435
:100A9000773461347634653420344F3476346534B9
:100AA0006E34003453344534543420345434453493
:100AB0004D34503420343C342A3443343E340034F2
:100AC000203433342E3443344F344E34563445348A
:100AD0004E34543449344F344E340034503472342C
:100AE00065342D34483465346134743469346E347B
:100AF00067342034003470346F34773465347234A2
:100B000020343D34203439343034303457340034D8
:100B1000543449344D344534203455345034203421
:100B2000213421340034543469346D346534203434
:100B3000523465346D3420343A34003453344534FF
:100B400054342034543449344D344534003435342D
:100B50002E34203450344134553453344534003429
:100B6000203432342E34473452344F344C344C34E5
:100B70000034203434342E34533454344134523419
:100B80005434003450346F34773465347234203444
:100B90004F346E340034203431342E344D346934C3
:100BA000633472346F340034543449344D34453432
:100BB00020343D342034003436342E342034533441
:100BC00054344F3450340034543449344D34453463
:100BD00020342D340034543465346D347034203472
:100BE0002D3400347334653463340034D430F6006B
:100BF0008530F7008130F8000A128A1581260A1222
:100C00008A118C3083120313A8000A30F2000030DE
:100C1000F3003E08AA00AB012A08F4002B08F500F7
:100C20000A128A112A240A128A117208303E0A1204
:100C30008A15D9250A128A118D3083120313A80050
:100C40000A30A4000030A5003E08AA00AB012A0823
:100C5000A6002B08A7000A128A11A0270A128A11DF
:100C6000831203132408303E0A128A15D9250A126A
:100C70008A118B3083120313A8003A300A128A15A6
:100C8000D9250A128A11893083120313A8000A3069
:100C9000F2000030F3003D08AA00AB012A08F4007E
:100CA0002B08F5000A128A112A240A128A117208E6
:100CB000303E0A128A15D9250A128A118A30831207
:100CC0000313A8000A30A4000030A5003D08AA00C4
:100CD000AB012A08A6002B08A7000A128A11A02738
:100CE0000A128A11831203132408303E0A128A154D
:100CF000D9250A128A111230F6008530F700C1306A
:100D0000F8000A128A1581260A128A11A730F60005
:100D10008530F7009130F8000A128A1581260A12F0
:100D20008A11DC30F6008530F700D130F8000A1265
:100D30008A1581260A128A11831203133D08031DA6
:100D4000A22EA32EE42E3E08031DA72EA82EE42ECD
:100D50000A128A15A1250A128A118312031312118D
:100D600007118830F6008530F700C430F8000A1209
:100D70008A1581260A128A112330F6008530F70081
:100D80009030F8000A128A1581260A128A118312FD
:100D900003138714333083120313AC00BB30AB0052
:100DA000DF30AA00AA0BD22EAB0BD22EAC0BD22E68
:100DB0008312031387100A128A15A1250A128A11B9
:100DC000023083120313BF0008008312031388113B
:100DD0000815881408146430F2000030F300FF3066
:100DE000F2070318F30AFF30F307720A031DFC2E03
:100DF000730A031DFC2EFD2EEF2E8312031306181B
:100E0000022F032F052F01309F2F8618082F092F3F
:100E10000B2F02309F2F06190E2F0F2F112F03308B
:100E20009F2F88150811881408146430F2000030D0
:100E3000F300FF30F2070318F30AFF30F3077308DB
:100E4000803AFF0080307F02031D282F013072029C
:100E500003182B2F2C2F192F831203130618312F51
:100E6000322F342F04309F2F8618372F382F3A2FE8
:100E700005309F2F06193D2F3E2F402F06309F2F04
:100E800088150815881008146430F2000030F3004B
:100E9000FF30F2070318F30AFF30F3077308803AB4
:100EA000FF0080307F02031D572F013072020318AC
:100EB0005A2F5B2F482F831203130618602F612FC0
:100EC000632F07309F2F8618662F672F692F0830F2
:100ED0009F2F06196C2F6D2F6F2F09309F2F8815AC
:100EE0000815881408106430F2000030F300FF3059
:100EF000F2070318F30AFF30F3077308803AFF0084
:100F000080307F02031D862F013072020318892F63
:100F10008A2F772F8312031306188F2F902F922F6B
:100F20002A309F2F8618952F962F982F00309F2FAD
:100F300006199B2F9C2F9E2F23309F2FFF300800D8
:100F4000F70183120313A71FA62FA72FAE2FA60901
:100F5000A709A60A0319A70A0130F700A51FB12F98
:100F6000B22FB72FA409A509A40A0319A50A2408BA
:100F700025040319BC2FBD2FEA2F0130F600C92F1D
:100F800001300310A40DA50DFF3E031DC12F01303C
:100F9000F607A51FCC2FCD2FC02F25082702031D34
:100FA000D32F24082602031CD62FD72FDD2F240889
:100FB000A6022508031CA703A70201300310A50CF5
:100FC000A40CFF3E031DDE2F0130F602031DE92FA6
:100FD000EA2FCD2F77080319EE2FEF2FF42FA60954
:100FE000A709A60A0319A70A2708A5002608A4002E
:060FF00008000134013489
:10100000FF1B0A2883137F1883170008840A03191B
:10101000FF0A08007F087F398A000408840A031940
:04102000FF0A820041
:101B0E001E3083120313BE00BD0107151215DD3002
:101B1E00BF0008008316031306080738860008085E
:101B2E00F039880081138312031388150815881461
:101B3E0008140800F20101300A128A15B0260A12A2
:101B4E008A150430F7003D30F600F60BAC2DF70B7E
:101B5E00AC2DB12D0800F400F301741CB72DB82D77
:101B6E00BA2D7208F3070310F20D0310F40C74086B
:101B7E00031DC22DC32DB42D730808008312031349
:101B8E001213921212129211121192101210831637
:101B9E0003138C14831203138C10FA308316031361
:101BAE009200080083120313A900F20128080A12FA
:101BBE008A15B0260A128A15F201F20A831203134D
:101BCE0029080A128A15B0260A128A1508000A1266
:101BDE008A11F2240A128A150A128A1591250A12FE
:101BEE008A15831603130711831203130711831625
:101BFE00031387108312031387100A128A15C52543
:101C0E000A128A150B178B170800F4000A128A1194
:101C1E00E5260A128A15F5007408031D172E182ED4
:101C2E001A2E75082E2E750A03191E2E1F2E262EFD
:101C3E007B080319232E242E262EFB01182E750A3F
:101C4E00031D2A2E2B2E2D2E0130FB00FF300800F7
:101C5E00F601F701721C342E352E3B2E7408F60752
:101C6E000318F70A7508F70701300310F40DF50D88
:101C7E00FF3E031D3C2E01300310F30CF20CFF3E11
:101C8E00031D432E72087304031D4E2E4F2E312E4C
:101C9E007708F3007608F2000800CB30F6008530A6
:101CAE00F7008130F8000A128A1581260A128A1569
:101CBE00B030F6008530F700C130F8000A128A15F0
:101CCE0081260A128A156030F6008530F7009130B1
:101CDE00F8000A128A1581260A128A15B930F60002
:101CEE008530F700D130F8000A128A1581260A12C3
:101CFE008A150800F20178080A128A15B0260A120F
:101D0E008A159F2EF201F20A7708FF0076088400EA
:101D1E000A128A1500200A128A150A128A15B0268E
:101D2E000A128A150130F6070318F70A0030F70772
:101D3E00770883120313FF00760884000A128A15AF
:101D4E0000200A128A15003A031DAE2EAF2E892EE0
:101D5E000800F5007218B42EB82E8312031309155D
:101D6E00BB2E8312031309117508F03988008914EC
:101D7E00A630F300F30BC12E00008312031389105B
:101D8E0075080F39F30003300310F30DFF3E031DEA
:101D9E00CB2E0310730D88008914A630F300F30BBD
:101DAE00D62E00008312031389101B30F4009E30D0
:101DBE00F300F30BE02EF40BE02E0000080083126C
:101DCE000313200821040319ED2EEE2E1B2F0130D4
:101DDE00A400FA2E01300310A00DA10DFF3E031D2D
:101DEE00F22E0130A407A11FFD2EFE2EF12E21088A
:101DFE002302031D042F20082202031C072F082F85
:101E0E000E2F2008A2022108031CA303A3020130F7
:101E1E000310A10CA00CFF3E031D0F2F0130A402D6
:101E2E00031D1A2F1B2FFE2E2308A1002208A0002F
:101E3E000800831203138C1C252F262F562F0130DA
:101E4E00F9070318FA0A0030FA07203079064E30E7
:101E5E0003197A06031D342F352F552FF901FA0178
:101E6E003E0803193B2F3C2F3F2F0130BE02552F4A
:101E7E003E08031D432F442F4D2F3D080319482FB5
:101E8E00492F4D2FBD013C30BE00552F3B08031985
:101E9E00512F522F552F0130BB02552F8C10710828
:101EAE008A00700E8300FE0E7E0E0900F601F70109
:101EBE00720873040319642F652F9A2F0130F800EE
:101ECE00712F01300310F20DF30DFF3E031D692F2C
:101EDE000130F807F31F742F752F682F0130031090
:101EEE00F60DF70DFF3E031D762F73087502031DC9
:101EFE00822F72087402031C852F862F8D2F720875
:101F0E00F4027308031CF503F50276140130031076
:101F1E00F30CF20CFF3E031D8E2F0130F802031D51
:101F2E00992F9A2F752F7708F3007608F200080084
:101F3E0083120313AD01AE012D08803EA800FF30C1
:101F4E000A128A15D9250A128A1501308312031333
:101F5E00AD070318AE0A0030AE0700302E02103067
:101F6E0003192D02031CBC2FBD2FA32FC230F60068
:101F7E008530F700C230F8000A128A1581260A123F
:101F8E008A154330F6008530F7009130F8000A12BA
:101F9E008A1581260A128A1583120313AF01B00126
:101FAE002F08D03EA800FF300A128A15D9250A1232
:101FBE008A15013083120313AF070318B00A0030DD
:101FCE00B00700303002103003192F02031CF02F1F
:101FDE00F12FD72F7F3083120313AC00D430AB0018
:101FEE003130AA00AA0BF92FAB0BF92FAC0BF92F3E
:021FFE000800D9
:02400E00FB3F76
:00000001FF
